{
  "_format": "hh-sol-artifact-1",
  "contractName": "FactoryRouter",
  "sourceName": "contracts/pools/FactoryRouter.sol",
  "abi": [
    {
      "inputs": [
        {
          "internalType": "address",
          "name": "_routerOwner",
          "type": "address"
        },
        {
          "internalType": "address",
          "name": "_oceanToken",
          "type": "address"
        },
        {
          "internalType": "address",
          "name": "_bpoolTemplate",
          "type": "address"
        },
        {
          "internalType": "address",
          "name": "_opcCollector",
          "type": "address"
        },
        {
          "internalType": "address[]",
          "name": "_preCreatedPools",
          "type": "address[]"
        }
      ],
      "stateMutability": "nonpayable",
      "type": "constructor"
    },
    {
      "anonymous": false,
      "inputs": [
        {
          "indexed": true,
          "internalType": "address",
          "name": "newBPoolAddress",
          "type": "address"
        },
        {
          "indexed": true,
          "internalType": "address",
          "name": "registeredBy",
          "type": "address"
        },
        {
          "indexed": true,
          "internalType": "address",
          "name": "datatokenAddress",
          "type": "address"
        },
        {
          "indexed": false,
          "internalType": "address",
          "name": "baseTokenAddress",
          "type": "address"
        },
        {
          "indexed": false,
          "internalType": "address",
          "name": "bpoolTemplateAddress",
          "type": "address"
        },
        {
          "indexed": false,
          "internalType": "address",
          "name": "ssAddress",
          "type": "address"
        }
      ],
      "name": "BPoolCreated",
      "type": "event"
    },
    {
      "anonymous": false,
      "inputs": [
        {
          "indexed": true,
          "internalType": "address",
          "name": "caller",
          "type": "address"
        },
        {
          "indexed": true,
          "internalType": "address",
          "name": "contractAddress",
          "type": "address"
        }
      ],
      "name": "DispenserContractAdded",
      "type": "event"
    },
    {
      "anonymous": false,
      "inputs": [
        {
          "indexed": true,
          "internalType": "address",
          "name": "caller",
          "type": "address"
        },
        {
          "indexed": true,
          "internalType": "address",
          "name": "contractAddress",
          "type": "address"
        }
      ],
      "name": "DispenserContractRemoved",
      "type": "event"
    },
    {
      "anonymous": false,
      "inputs": [
        {
          "indexed": true,
          "internalType": "address",
          "name": "caller",
          "type": "address"
        },
        {
          "indexed": true,
          "internalType": "address",
          "name": "contractAddress",
          "type": "address"
        }
      ],
      "name": "FactoryContractChanged",
      "type": "event"
    },
    {
      "anonymous": false,
      "inputs": [
        {
          "indexed": true,
          "internalType": "address",
          "name": "caller",
          "type": "address"
        },
        {
          "indexed": true,
          "internalType": "address",
          "name": "contractAddress",
          "type": "address"
        }
      ],
      "name": "FixedRateContractAdded",
      "type": "event"
    },
    {
      "anonymous": false,
      "inputs": [
        {
          "indexed": true,
          "internalType": "address",
          "name": "caller",
          "type": "address"
        },
        {
          "indexed": true,
          "internalType": "address",
          "name": "contractAddress",
          "type": "address"
        }
      ],
      "name": "FixedRateContractRemoved",
      "type": "event"
    },
    {
      "anonymous": false,
      "inputs": [
        {
          "indexed": false,
          "internalType": "address",
          "name": "instance",
          "type": "address"
        }
      ],
      "name": "InstanceDeployed",
      "type": "event"
    },
    {
      "anonymous": false,
      "inputs": [
        {
          "indexed": true,
          "internalType": "address",
          "name": "poolAddress",
          "type": "address"
        },
        {
          "indexed": false,
          "internalType": "bool",
          "name": "isOcean",
          "type": "bool"
        }
      ],
      "name": "NewPool",
      "type": "event"
    },
    {
      "anonymous": false,
      "inputs": [
        {
          "indexed": true,
          "internalType": "address",
          "name": "caller",
          "type": "address"
        },
        {
          "indexed": false,
          "internalType": "uint256",
          "name": "newSwapOceanFee",
          "type": "uint256"
        },
        {
          "indexed": false,
          "internalType": "uint256",
          "name": "newSwapNonOceanFee",
          "type": "uint256"
        },
        {
          "indexed": false,
          "internalType": "uint256",
          "name": "newConsumeFee",
          "type": "uint256"
        },
        {
          "indexed": false,
          "internalType": "uint256",
          "name": "newProviderFee",
          "type": "uint256"
        }
      ],
      "name": "OPCFeeChanged",
      "type": "event"
    },
    {
      "anonymous": false,
      "inputs": [
        {
          "indexed": true,
          "internalType": "address",
          "name": "caller",
          "type": "address"
        },
        {
          "indexed": true,
          "internalType": "address",
          "name": "contractAddress",
          "type": "address"
        }
      ],
      "name": "PoolTemplateAdded",
      "type": "event"
    },
    {
      "anonymous": false,
      "inputs": [
        {
          "indexed": true,
          "internalType": "address",
          "name": "caller",
          "type": "address"
        },
        {
          "indexed": true,
          "internalType": "address",
          "name": "contractAddress",
          "type": "address"
        }
      ],
      "name": "PoolTemplateRemoved",
      "type": "event"
    },
    {
      "anonymous": false,
      "inputs": [
        {
          "indexed": true,
          "internalType": "address",
          "name": "caller",
          "type": "address"
        },
        {
          "indexed": true,
          "internalType": "address",
          "name": "newRouter",
          "type": "address"
        }
      ],
      "name": "RouterChanged",
      "type": "event"
    },
    {
      "anonymous": false,
      "inputs": [
        {
          "indexed": true,
          "internalType": "address",
          "name": "caller",
          "type": "address"
        },
        {
          "indexed": true,
          "internalType": "address",
          "name": "contractAddress",
          "type": "address"
        }
      ],
      "name": "SSContractAdded",
      "type": "event"
    },
    {
      "anonymous": false,
      "inputs": [
        {
          "indexed": true,
          "internalType": "address",
          "name": "caller",
          "type": "address"
        },
        {
          "indexed": true,
          "internalType": "address",
          "name": "contractAddress",
          "type": "address"
        }
      ],
      "name": "SSContractRemoved",
      "type": "event"
    },
    {
      "anonymous": false,
      "inputs": [
        {
          "indexed": true,
          "internalType": "address",
          "name": "caller",
          "type": "address"
        },
        {
          "indexed": true,
          "internalType": "address",
          "name": "token",
          "type": "address"
        }
      ],
      "name": "TokenAdded",
      "type": "event"
    },
    {
      "anonymous": false,
      "inputs": [
        {
          "indexed": true,
          "internalType": "address",
          "name": "caller",
          "type": "address"
        },
        {
          "indexed": true,
          "internalType": "address",
          "name": "token",
          "type": "address"
        }
      ],
      "name": "TokenRemoved",
      "type": "event"
    },
    {
      "anonymous": false,
      "inputs": [
        {
          "indexed": true,
          "internalType": "address",
          "name": "caller",
          "type": "address"
        },
        {
          "indexed": false,
          "internalType": "uint256",
          "name": "minVestingPeriodInBlocks",
          "type": "uint256"
        }
      ],
      "name": "VestingPeriodChanges",
      "type": "event"
    },
    {
      "inputs": [],
      "name": "BONE",
      "outputs": [
        {
          "internalType": "uint256",
          "name": "",
          "type": "uint256"
        }
      ],
      "stateMutability": "view",
      "type": "function"
    },
    {
      "inputs": [],
      "name": "BPOW_PRECISION",
      "outputs": [
        {
          "internalType": "uint256",
          "name": "",
          "type": "uint256"
        }
      ],
      "stateMutability": "view",
      "type": "function"
    },
    {
      "inputs": [],
      "name": "EXIT_FEE",
      "outputs": [
        {
          "internalType": "uint256",
          "name": "",
          "type": "uint256"
        }
      ],
      "stateMutability": "view",
      "type": "function"
    },
    {
      "inputs": [],
      "name": "INIT_POOL_SUPPLY",
      "outputs": [
        {
          "internalType": "uint256",
          "name": "",
          "type": "uint256"
        }
      ],
      "stateMutability": "view",
      "type": "function"
    },
    {
      "inputs": [],
      "name": "MAX_BOUND_TOKENS",
      "outputs": [
        {
          "internalType": "uint256",
          "name": "",
          "type": "uint256"
        }
      ],
      "stateMutability": "view",
      "type": "function"
    },
    {
      "inputs": [],
      "name": "MAX_BPOW_BASE",
      "outputs": [
        {
          "internalType": "uint256",
          "name": "",
          "type": "uint256"
        }
      ],
      "stateMutability": "view",
      "type": "function"
    },
    {
      "inputs": [],
      "name": "MAX_FEE",
      "outputs": [
        {
          "internalType": "uint256",
          "name": "",
          "type": "uint256"
        }
      ],
      "stateMutability": "view",
      "type": "function"
    },
    {
      "inputs": [],
      "name": "MAX_IN_RATIO",
      "outputs": [
        {
          "internalType": "uint256",
          "name": "",
          "type": "uint256"
        }
      ],
      "stateMutability": "view",
      "type": "function"
    },
    {
      "inputs": [],
      "name": "MAX_OUT_RATIO",
      "outputs": [
        {
          "internalType": "uint256",
          "name": "",
          "type": "uint256"
        }
      ],
      "stateMutability": "view",
      "type": "function"
    },
    {
      "inputs": [],
      "name": "MAX_TOTAL_WEIGHT",
      "outputs": [
        {
          "internalType": "uint256",
          "name": "",
          "type": "uint256"
        }
      ],
      "stateMutability": "view",
      "type": "function"
    },
    {
      "inputs": [],
      "name": "MAX_WEIGHT",
      "outputs": [
        {
          "internalType": "uint256",
          "name": "",
          "type": "uint256"
        }
      ],
      "stateMutability": "view",
      "type": "function"
    },
    {
      "inputs": [],
      "name": "MIN_BALANCE",
      "outputs": [
        {
          "internalType": "uint256",
          "name": "",
          "type": "uint256"
        }
      ],
      "stateMutability": "view",
      "type": "function"
    },
    {
      "inputs": [],
      "name": "MIN_BOUND_TOKENS",
      "outputs": [
        {
          "internalType": "uint256",
          "name": "",
          "type": "uint256"
        }
      ],
      "stateMutability": "view",
      "type": "function"
    },
    {
      "inputs": [],
      "name": "MIN_BPOW_BASE",
      "outputs": [
        {
          "internalType": "uint256",
          "name": "",
          "type": "uint256"
        }
      ],
      "stateMutability": "view",
      "type": "function"
    },
    {
      "inputs": [],
      "name": "MIN_FEE",
      "outputs": [
        {
          "internalType": "uint256",
          "name": "",
          "type": "uint256"
        }
      ],
      "stateMutability": "view",
      "type": "function"
    },
    {
      "inputs": [],
      "name": "MIN_WEIGHT",
      "outputs": [
        {
          "internalType": "uint256",
          "name": "",
          "type": "uint256"
        }
      ],
      "stateMutability": "view",
      "type": "function"
    },
    {
      "inputs": [
        {
          "internalType": "address",
          "name": "_dispenser",
          "type": "address"
        }
      ],
      "name": "addDispenserContract",
      "outputs": [],
      "stateMutability": "nonpayable",
      "type": "function"
    },
    {
      "inputs": [
        {
          "internalType": "address",
          "name": "_factory",
          "type": "address"
        }
      ],
      "name": "addFactory",
      "outputs": [],
      "stateMutability": "nonpayable",
      "type": "function"
    },
    {
      "inputs": [
        {
          "internalType": "address",
          "name": "_fixedRate",
          "type": "address"
        }
      ],
      "name": "addFixedRateContract",
      "outputs": [],
      "stateMutability": "nonpayable",
      "type": "function"
    },
    {
      "inputs": [
        {
          "internalType": "address",
          "name": "oceanTokenAddress",
          "type": "address"
        }
      ],
      "name": "addOceanToken",
      "outputs": [],
      "stateMutability": "nonpayable",
      "type": "function"
    },
    {
      "inputs": [
        {
          "internalType": "address",
          "name": "poolTemplate",
          "type": "address"
        }
      ],
      "name": "addPoolTemplate",
      "outputs": [],
      "stateMutability": "nonpayable",
      "type": "function"
    },
    {
      "inputs": [
        {
          "internalType": "address",
          "name": "_ssContract",
          "type": "address"
        }
      ],
      "name": "addSSContract",
      "outputs": [],
      "stateMutability": "nonpayable",
      "type": "function"
    },
    {
      "inputs": [
        {
          "components": [
            {
              "internalType": "bytes32",
              "name": "exchangeIds",
              "type": "bytes32"
            },
            {
              "internalType": "address",
              "name": "source",
              "type": "address"
            },
            {
              "internalType": "enum FactoryRouter.operationType",
              "name": "operation",
              "type": "uint8"
            },
            {
              "internalType": "address",
              "name": "tokenIn",
              "type": "address"
            },
            {
              "internalType": "uint256",
              "name": "amountsIn",
              "type": "uint256"
            },
            {
              "internalType": "address",
              "name": "tokenOut",
              "type": "address"
            },
            {
              "internalType": "uint256",
              "name": "amountsOut",
              "type": "uint256"
            },
            {
              "internalType": "uint256",
              "name": "maxPrice",
              "type": "uint256"
            },
            {
              "internalType": "uint256",
              "name": "swapMarketFee",
              "type": "uint256"
            },
            {
              "internalType": "address",
              "name": "marketFeeAddress",
              "type": "address"
            }
          ],
          "internalType": "struct FactoryRouter.Operations[]",
          "name": "_operations",
          "type": "tuple[]"
        }
      ],
      "name": "buyDTBatch",
      "outputs": [],
      "stateMutability": "nonpayable",
      "type": "function"
    },
    {
      "inputs": [
        {
          "internalType": "address",
          "name": "_routerOwner",
          "type": "address"
        }
      ],
      "name": "changeRouterOwner",
      "outputs": [],
      "stateMutability": "nonpayable",
      "type": "function"
    },
    {
      "inputs": [],
      "name": "consumeFee",
      "outputs": [
        {
          "internalType": "uint256",
          "name": "",
          "type": "uint256"
        }
      ],
      "stateMutability": "view",
      "type": "function"
    },
    {
      "inputs": [
        {
          "internalType": "address",
          "name": "_dispenser",
          "type": "address"
        },
        {
          "internalType": "address",
          "name": "datatoken",
          "type": "address"
        },
        {
          "internalType": "uint256",
          "name": "maxTokens",
          "type": "uint256"
        },
        {
          "internalType": "uint256",
          "name": "maxBalance",
          "type": "uint256"
        },
        {
          "internalType": "address",
          "name": "owner",
          "type": "address"
        },
        {
          "internalType": "address",
          "name": "allowedSwapper",
          "type": "address"
        }
      ],
      "name": "deployDispenser",
      "outputs": [],
      "stateMutability": "nonpayable",
      "type": "function"
    },
    {
      "inputs": [
        {
          "internalType": "address",
          "name": "fixedPriceAddress",
          "type": "address"
        },
        {
          "internalType": "address[]",
          "name": "addresses",
          "type": "address[]"
        },
        {
          "internalType": "uint256[]",
          "name": "uints",
          "type": "uint256[]"
        }
      ],
      "name": "deployFixedRate",
      "outputs": [
        {
          "internalType": "bytes32",
          "name": "exchangeId",
          "type": "bytes32"
        }
      ],
      "stateMutability": "nonpayable",
      "type": "function"
    },
    {
      "inputs": [
        {
          "internalType": "address[2]",
          "name": "tokens",
          "type": "address[2]"
        },
        {
          "internalType": "uint256[]",
          "name": "ssParams",
          "type": "uint256[]"
        },
        {
          "internalType": "uint256[]",
          "name": "swapFees",
          "type": "uint256[]"
        },
        {
          "internalType": "address[]",
          "name": "addresses",
          "type": "address[]"
        }
      ],
      "name": "deployPool",
      "outputs": [
        {
          "internalType": "address",
          "name": "",
          "type": "address"
        }
      ],
      "stateMutability": "nonpayable",
      "type": "function"
    },
    {
      "inputs": [
        {
          "internalType": "uint256",
          "name": "",
          "type": "uint256"
        }
      ],
      "name": "dispensers",
      "outputs": [
        {
          "internalType": "address",
          "name": "",
          "type": "address"
        }
      ],
      "stateMutability": "view",
      "type": "function"
    },
    {
      "inputs": [],
      "name": "factory",
      "outputs": [
        {
          "internalType": "address",
          "name": "",
          "type": "address"
        }
      ],
      "stateMutability": "view",
      "type": "function"
    },
    {
      "inputs": [],
      "name": "fixedRate",
      "outputs": [
        {
          "internalType": "address",
          "name": "",
          "type": "address"
        }
      ],
      "stateMutability": "view",
      "type": "function"
    },
    {
      "inputs": [
        {
          "internalType": "uint256",
          "name": "",
          "type": "uint256"
        }
      ],
      "name": "fixedrates",
      "outputs": [
        {
          "internalType": "address",
          "name": "",
          "type": "address"
        }
      ],
      "stateMutability": "view",
      "type": "function"
    },
    {
      "inputs": [],
      "name": "getDispensersContracts",
      "outputs": [
        {
          "internalType": "address[]",
          "name": "",
          "type": "address[]"
        }
      ],
      "stateMutability": "view",
      "type": "function"
    },
    {
      "inputs": [],
      "name": "getFixedRatesContracts",
      "outputs": [
        {
          "internalType": "address[]",
          "name": "",
          "type": "address[]"
        }
      ],
      "stateMutability": "view",
      "type": "function"
    },
    {
      "inputs": [],
      "name": "getMinVestingPeriod",
      "outputs": [
        {
          "internalType": "uint256",
          "name": "",
          "type": "uint256"
        }
      ],
      "stateMutability": "view",
      "type": "function"
    },
    {
      "inputs": [],
      "name": "getOPCConsumeFee",
      "outputs": [
        {
          "internalType": "uint256",
          "name": "",
          "type": "uint256"
        }
      ],
      "stateMutability": "view",
      "type": "function"
    },
    {
      "inputs": [
        {
          "internalType": "address",
          "name": "baseToken",
          "type": "address"
        }
      ],
      "name": "getOPCFee",
      "outputs": [
        {
          "internalType": "uint256",
          "name": "",
          "type": "uint256"
        }
      ],
      "stateMutability": "view",
      "type": "function"
    },
    {
      "inputs": [],
      "name": "getOPCFees",
      "outputs": [
        {
          "internalType": "uint256",
          "name": "",
          "type": "uint256"
        },
        {
          "internalType": "uint256",
          "name": "",
          "type": "uint256"
        }
      ],
      "stateMutability": "view",
      "type": "function"
    },
    {
      "inputs": [],
      "name": "getOPCProviderFee",
      "outputs": [
        {
          "internalType": "uint256",
          "name": "",
          "type": "uint256"
        }
      ],
      "stateMutability": "view",
      "type": "function"
    },
    {
      "inputs": [],
      "name": "getOceanTokens",
      "outputs": [
        {
          "internalType": "address[]",
          "name": "",
          "type": "address[]"
        }
      ],
      "stateMutability": "view",
      "type": "function"
    },
    {
      "inputs": [],
      "name": "getPoolTemplates",
      "outputs": [
        {
          "internalType": "address[]",
          "name": "",
          "type": "address[]"
        }
      ],
      "stateMutability": "view",
      "type": "function"
    },
    {
      "inputs": [],
      "name": "getSSContracts",
      "outputs": [
        {
          "internalType": "address[]",
          "name": "",
          "type": "address[]"
        }
      ],
      "stateMutability": "view",
      "type": "function"
    },
    {
      "inputs": [
        {
          "internalType": "address",
          "name": "_dispenser",
          "type": "address"
        }
      ],
      "name": "isDispenserContract",
      "outputs": [
        {
          "internalType": "bool",
          "name": "",
          "type": "bool"
        }
      ],
      "stateMutability": "view",
      "type": "function"
    },
    {
      "inputs": [
        {
          "internalType": "address",
          "name": "_fixedRate",
          "type": "address"
        }
      ],
      "name": "isFixedRateContract",
      "outputs": [
        {
          "internalType": "bool",
          "name": "",
          "type": "bool"
        }
      ],
      "stateMutability": "view",
      "type": "function"
    },
    {
      "inputs": [
        {
          "internalType": "address",
          "name": "oceanTokenAddress",
          "type": "address"
        }
      ],
      "name": "isOceanToken",
      "outputs": [
        {
          "internalType": "bool",
          "name": "",
          "type": "bool"
        }
      ],
      "stateMutability": "view",
      "type": "function"
    },
    {
      "inputs": [
        {
          "internalType": "address",
          "name": "poolTemplate",
          "type": "address"
        }
      ],
      "name": "isPoolTemplate",
      "outputs": [
        {
          "internalType": "bool",
          "name": "",
          "type": "bool"
        }
      ],
      "stateMutability": "view",
      "type": "function"
    },
    {
      "inputs": [
        {
          "internalType": "address",
          "name": "_ssContract",
          "type": "address"
        }
      ],
      "name": "isSSContract",
      "outputs": [
        {
          "internalType": "bool",
          "name": "",
          "type": "bool"
        }
      ],
      "stateMutability": "view",
      "type": "function"
    },
    {
      "inputs": [],
      "name": "minVestingPeriodInBlocks",
      "outputs": [
        {
          "internalType": "uint256",
          "name": "",
          "type": "uint256"
        }
      ],
      "stateMutability": "view",
      "type": "function"
    },
    {
      "inputs": [
        {
          "internalType": "uint256",
          "name": "",
          "type": "uint256"
        }
      ],
      "name": "oceanTokens",
      "outputs": [
        {
          "internalType": "address",
          "name": "",
          "type": "address"
        }
      ],
      "stateMutability": "view",
      "type": "function"
    },
    {
      "inputs": [],
      "name": "opcCollector",
      "outputs": [
        {
          "internalType": "address",
          "name": "",
          "type": "address"
        }
      ],
      "stateMutability": "view",
      "type": "function"
    },
    {
      "inputs": [
        {
          "internalType": "uint256",
          "name": "",
          "type": "uint256"
        }
      ],
      "name": "poolTemplates",
      "outputs": [
        {
          "internalType": "address",
          "name": "",
          "type": "address"
        }
      ],
      "stateMutability": "view",
      "type": "function"
    },
    {
      "inputs": [],
      "name": "providerFee",
      "outputs": [
        {
          "internalType": "uint256",
          "name": "",
          "type": "uint256"
        }
      ],
      "stateMutability": "view",
      "type": "function"
    },
    {
      "inputs": [
        {
          "internalType": "address",
          "name": "_dispenser",
          "type": "address"
        }
      ],
      "name": "removeDispenserContract",
      "outputs": [],
      "stateMutability": "nonpayable",
      "type": "function"
    },
    {
      "inputs": [
        {
          "internalType": "address",
          "name": "_fixedRate",
          "type": "address"
        }
      ],
      "name": "removeFixedRateContract",
      "outputs": [],
      "stateMutability": "nonpayable",
      "type": "function"
    },
    {
      "inputs": [
        {
          "internalType": "address",
          "name": "oceanTokenAddress",
          "type": "address"
        }
      ],
      "name": "removeOceanToken",
      "outputs": [],
      "stateMutability": "nonpayable",
      "type": "function"
    },
    {
      "inputs": [
        {
          "internalType": "address",
          "name": "poolTemplate",
          "type": "address"
        }
      ],
      "name": "removePoolTemplate",
      "outputs": [],
      "stateMutability": "nonpayable",
      "type": "function"
    },
    {
      "inputs": [
        {
          "internalType": "address",
          "name": "_ssContract",
          "type": "address"
        }
      ],
      "name": "removeSSContract",
      "outputs": [],
      "stateMutability": "nonpayable",
      "type": "function"
    },
    {
      "inputs": [],
      "name": "routerOwner",
      "outputs": [
        {
          "internalType": "address",
          "name": "",
          "type": "address"
        }
      ],
      "stateMutability": "view",
      "type": "function"
    },
    {
      "inputs": [
        {
          "internalType": "uint256",
          "name": "",
          "type": "uint256"
        }
      ],
      "name": "ssContracts",
      "outputs": [
        {
          "internalType": "address",
          "name": "",
          "type": "address"
        }
      ],
      "stateMutability": "view",
      "type": "function"
    },
    {
      "inputs": [
        {
          "components": [
            {
              "internalType": "address",
              "name": "poolAddress",
              "type": "address"
            },
            {
              "internalType": "uint256",
              "name": "tokenAmountIn",
              "type": "uint256"
            },
            {
              "internalType": "uint256",
              "name": "minPoolAmountOut",
              "type": "uint256"
            }
          ],
          "internalType": "struct FactoryRouter.Stakes[]",
          "name": "_stakes",
          "type": "tuple[]"
        }
      ],
      "name": "stakeBatch",
      "outputs": [],
      "stateMutability": "nonpayable",
      "type": "function"
    },
    {
      "inputs": [],
      "name": "swapNonOceanFee",
      "outputs": [
        {
          "internalType": "uint256",
          "name": "",
          "type": "uint256"
        }
      ],
      "stateMutability": "view",
      "type": "function"
    },
    {
      "inputs": [],
      "name": "swapOceanFee",
      "outputs": [
        {
          "internalType": "uint256",
          "name": "",
          "type": "uint256"
        }
      ],
      "stateMutability": "view",
      "type": "function"
    },
    {
      "inputs": [
        {
          "internalType": "uint256",
          "name": "_newPeriod",
          "type": "uint256"
        }
      ],
      "name": "updateMinVestingPeriod",
      "outputs": [],
      "stateMutability": "nonpayable",
      "type": "function"
    },
    {
      "inputs": [
        {
          "internalType": "uint256",
          "name": "_newSwapOceanFee",
          "type": "uint256"
        },
        {
          "internalType": "uint256",
          "name": "_newSwapNonOceanFee",
          "type": "uint256"
        },
        {
          "internalType": "uint256",
          "name": "_newConsumeFee",
          "type": "uint256"
        },
        {
          "internalType": "uint256",
          "name": "_newProviderFee",
          "type": "uint256"
        }
      ],
      "name": "updateOPCFee",
      "outputs": [],
      "stateMutability": "nonpayable",
      "type": "function"
    }
  ],
  "bytecode": "0x608060405262250490600555600060065566038d7ea4c68000600755662386f26fc1000060085560006009553480156200003857600080fd5b5060405162004e6b38038062004e6b8339810160408190526200005b9162000609565b8282826001600160a01b038316620000d05760405162461bcd60e51b815260206004820152602d60248201527f42466163746f72793a20696e76616c69642062706f6f6c2074656d706c61746560448201526c207a65726f206164647265737360981b60648201526084015b60405180910390fd5b6001600160a01b038216620001285760405162461bcd60e51b815260206004820152601660248201527f42466163746f72793a207a65726f2061646472657373000000000000000000006044820152606401620000c7565b600080546001600160a01b0319166001600160a01b0384161790556200014e8362000379565b805115620001fd5760005b8151811015620001fb5760006001600160a01b0316336001600160a01b03168383815181106200018d576200018d62000729565b602090810291909101810151604080516000808252938101849052908101929092526001600160a01b0316907fbb6121447d29a04cc37bfd93cdf6a9dd08229f2d941116c1528f04698c4e790e9060600160405180910390a480620001f2816200073f565b91505062000159565b505b5050506001600160a01b038516620002645760405162461bcd60e51b815260206004820152602360248201527f466163746f7279526f757465723a20496e76616c696420726f75746572206f776044820152623732b960e91b6064820152608401620000c7565b6001600160a01b038216620002c85760405162461bcd60e51b815260206004820152602360248201527f466163746f7279526f757465723a20496e76616c6964206f7063436f6c6c65636044820152623a37b960e91b6064820152608401620000c7565b6001600160a01b038416620003335760405162461bcd60e51b815260206004820152602a60248201527f466163746f7279526f757465723a20496e76616c6964204f6365616e20546f6b604482015269656e206164647265737360b01b6064820152608401620000c7565b600280546001600160a01b038088166001600160a01b03199283161790925560008054928516929091169190911790556200036e8462000470565b505050505062000769565b6001600160a01b038116620003e55760405162461bcd60e51b815260206004820152602b60248201527f466163746f7279526f757465723a20496e76616c696420706f6f6c54656d706c60448201526a617465206164647265737360a81b6064820152608401620000c7565b620003f081620004fb565b6200046d5760018054808201825560009182527fb10e2d527612073b26eecdfd717e6a320cf44b4afac2b0732d9fcbe2b7fa0cf60180546001600160a01b0319166001600160a01b038416908117909155604051909133917fc3674c32cbec94fe266aab7ef71f65b9bf77e1ed501d4f2bece8752f5352e9ac9190a35b50565b6200047b816200056d565b6200046d57600a805460018101825560009182527fc65a7bb8d6351c1cf70c95a316cc6a92839c986682d98bc35f958f4883f9d2a80180546001600160a01b0319166001600160a01b038416908117909155604051909133917fdffbd9ded1c09446f09377de547142dcce7dc541c8b0b028142b1eba7026b9e79190a350565b6000805b6001548110156200056457826001600160a01b0316600182815481106200052a576200052a62000729565b6000918252602090912001546001600160a01b031614156200054f5750600192915050565b806200055b816200073f565b915050620004ff565b50600092915050565b6000805b600a548110156200056457826001600160a01b0316600a82815481106200059c576200059c62000729565b6000918252602090912001546001600160a01b03161415620005c15750600192915050565b80620005cd816200073f565b91505062000571565b80516001600160a01b0381168114620005ee57600080fd5b919050565b634e487b7160e01b600052604160045260246000fd5b600080600080600060a086880312156200062257600080fd5b6200062d86620005d6565b945060206200063e818801620005d6565b94506200064e60408801620005d6565b93506200065e60608801620005d6565b60808801519093506001600160401b03808211156200067c57600080fd5b818901915089601f8301126200069157600080fd5b815181811115620006a657620006a6620005f3565b8060051b604051601f19603f83011681018181108582111715620006ce57620006ce620005f3565b60405291825284820192508381018501918c831115620006ed57600080fd5b938501935b8285101562000716576200070685620005d6565b84529385019392850192620006f2565b8096505050505050509295509295909350565b634e487b7160e01b600052603260045260246000fd5b60006000198214156200076257634e487b7160e01b600052601160045260246000fd5b5060010190565b6146f280620007796000396000f3fe608060405234801561001057600080fd5b50600436106103d05760003560e01c8063992e2a92116101ff578063c6580d121161011a578063e2bdeefa116100ad578063ecdda5881161007c578063ecdda58814610750578063ee3bc63514610763578063fca24bc614610776578063fdaa59bf1461078957600080fd5b8063e2bdeefa1461072c578063e4a28a521461041a578063e525f99c14610735578063ec0930211461074857600080fd5b8063dce2d0df116100e9578063dce2d0df146106e2578063de9a95a7146106fd578063e183fb3f14610710578063e193faad1461071957600080fd5b8063c6580d12146106b5578063c6e983d9146106bd578063cb870cbf146106c6578063d629a00a146106cf57600080fd5b8063b8421e2b11610192578063bfa04b8511610161578063bfa04b851461067c578063c07c00fe1461068f578063c36596a6146104a9578063c45a0155146106a257600080fd5b8063b8421e2b14610651578063ba019dab14610664578063bc063e1a1461066c578063bc694ea21461067457600080fd5b8063b0e0d136116101ce578063b0e0d13614610623578063b19aaac61461062b578063b66806fb1461063e578063b7b800a41461062357600080fd5b8063992e2a92146105ed5780639bc01b3c146105f55780639cdfa6ad146105fd5780639f2c010a1461061057600080fd5b806350cbbe76116102ef5780637cbf85bf116102825780638552730a116102515780638552730a146105b7578063858ab596146105ca578063867378c5146105dd5780639381cd2b146105e557600080fd5b80637cbf85bf146105765780637d28354d14610589578063802d14221461059157806382449375146105a457600080fd5b80636cdf90a1116102be5780636cdf90a114610540578063737e5ca0146105535780637521aff91461055b57806376c7a3c71461056e57600080fd5b806350cbbe761461050a578063510f34651461051d5780636c45e881146105255780636c9fb6121461052d57600080fd5b8063189d00ca11610367578063335b7fa211610336578063335b7fa2146104d357806346104ea8146104e6578063475030c0146104ee57806347e14094146104f757600080fd5b8063189d00ca146104a1578063218b5382146104a9578063241c7a6d146104b857806329ce1ec5146104c057600080fd5b806315c25dd5116103a357806315c25dd51461045357806315d4c9eb14610466578063165926141461047b57806316d9cb3d1461048e57600080fd5b80630318ad66146103d557806303814238146103ea57806309a3bbe41461041a5780631184e8d914610430575b600080fd5b6103e86103e3366004613c01565b61079c565b005b6000546103fd906001600160a01b031681565b6040516001600160a01b0390911681526020015b60405180910390f35b6104226107db565b604051908152602001610411565b61044361043e366004613c01565b6107f1565b6040519015158152602001610411565b610443610461366004613c01565b61085b565b61046e6108bc565b6040516104119190613c1e565b6103e8610489366004613c01565b61091e565b6103e861049c366004613c01565b610ae0565b610422610bb8565b610422670de0b6b3a764000081565b61046e610bcf565b6103e86104ce366004613c01565b610c2f565b6103fd6104e1366004613c6b565b610d5a565b61046e610d84565b61042260055481565b6103e8610505366004613c01565b610de4565b6103fd610518366004613c6b565b610fa5565b600554610422565b600954610422565b6103e861053b366004613c01565b610fb5565b61044361054e366004613c01565b61108d565b61046e6110ee565b6103e8610569366004613c6b565b61114e565b6104226111b5565b6103fd610584366004613c6b565b6111ca565b600854610422565b6004546103fd906001600160a01b031681565b6104226105b2366004613cd0565b6111da565b6002546103fd906001600160a01b031681565b6103e86105d8366004613d53565b61134c565b610422611796565b6104226117ad565b6104226117c0565b61046e6117de565b6103e861060b366004613c01565b61183e565b6103e861061e366004613c01565b611a42565b610422600281565b6103e8610639366004613c01565b611c03565b6103fd61064c366004613c6b565b611c36565b61042261065f366004613c01565b611c46565b610422600181565b610422611c6b565b610422611c7e565b6103e861068a366004613dc8565b611c9d565b61044361069d366004613c01565b611d2b565b6003546103fd906001600160a01b031681565b610422600081565b61042260095481565b61042260075481565b6103e86106dd366004613dfa565b611d8c565b60065460075460408051928352602083019190915201610411565b6103e861070b366004613c01565b611efc565b61042260065481565b6103e8610727366004613c01565b611fd4565b61042260085481565b6103e8610743366004613c01565b612007565b6104226120d3565b6103e861075e366004613e6a565b6120e6565b6103fd610771366004613ece565b612bb9565b610443610784366004613c01565b612f5b565b6103fd610797366004613c6b565b612fbc565b6002546001600160a01b031633146107cf5760405162461bcd60e51b81526004016107c690613f7e565b60405180910390fd5b6107d881612fcc565b50565b6107ee670de0b6b3a76400006032613fc4565b81565b6000805b600a5481101561085257826001600160a01b0316600a828154811061081c5761081c613fe3565b6000918252602090912001546001600160a01b031614156108405750600192915050565b8061084a81613ff9565b9150506107f5565b50600092915050565b6000805b600b5481101561085257826001600160a01b0316600b828154811061088657610886613fe3565b6000918252602090912001546001600160a01b031614156108aa5750600192915050565b806108b481613ff9565b91505061085f565b6060600d80548060200260200160405190810160405280929190818152602001828054801561091457602002820191906000526020600020905b81546001600160a01b031681526001909101906020018083116108f6575b5050505050905090565b6002546001600160a01b031633146109485760405162461bcd60e51b81526004016107c690613f7e565b6001600160a01b03811661096e5760405162461bcd60e51b81526004016107c690614014565b60005b600d548110156109ca57816001600160a01b0316600d828154811061099857610998613fe3565b6000918252602090912001546001600160a01b031614156109b8576109ca565b806109c281613ff9565b915050610971565b600d54811015610adc57805b600d546109e59060019061405d565b811015610a7057600d6109f9826001614074565b81548110610a0957610a09613fe3565b600091825260209091200154600d80546001600160a01b039092169183908110610a3557610a35613fe3565b600091825260209091200180546001600160a01b0319166001600160a01b039290921691909117905580610a6881613ff9565b9150506109d6565b50600d805480610a8257610a8261408c565b600082815260208120820160001990810180546001600160a01b03191690559091019091556040516001600160a01b0384169133917f63fe522dcdc5f006279afe8840a87398bb3d0dbb906b848866195859621908b39190a35b5050565b6002546001600160a01b03163314610b0a5760405162461bcd60e51b81526004016107c690613f7e565b6001600160a01b038116610b305760405162461bcd60e51b81526004016107c6906140a2565b610b398161108d565b6107d857600c805460018101825560009182527fdf6966c971051c3d54ec59162606531493a51404a002842f56009d7e5cf4a8c70180546001600160a01b0319166001600160a01b038416908117909155604051909133917f45ccb9b9d6b112eb7a38daf6a23bda8b4c8449d5cf64a034975a5beb8cdd37b39190a350565b6107ee6402540be400670de0b6b3a76400006140eb565b60606001805480602002602001604051908101604052809291908181526020018280548015610914576020028201919060005260206000209081546001600160a01b031681526001909101906020018083116108f6575050505050905090565b6002546001600160a01b03163314610c595760405162461bcd60e51b81526004016107c690613f7e565b6001600160a01b038116610cbf5760405162461bcd60e51b815260206004820152602760248201527f466163746f7279526f757465723a20496e76616c6964205f666163746f7279206044820152666164647265737360c81b60648201526084016107c6565b6003546001600160a01b031615610d0e5760405162461bcd60e51b8152602060048201526013602482015272119050d513d49648105314915051164814d155606a1b60448201526064016107c6565b600380546001600160a01b0319166001600160a01b03831690811790915560405133907f1f869f1ddaa0e2e3652252b3394c05c805f54a0d5f7fb6975f785ae4f91e587190600090a350565b600d8181548110610d6a57600080fd5b6000918252602090912001546001600160a01b0316905081565b6060600c805480602002602001604051908101604052809291908181526020018280548015610914576020028201919060005260206000209081546001600160a01b031681526001909101906020018083116108f6575050505050905090565b6002546001600160a01b03163314610e0e5760405162461bcd60e51b81526004016107c690613f7e565b6001600160a01b038116610e345760405162461bcd60e51b81526004016107c69061410d565b60005b600b54811015610e9057816001600160a01b0316600b8281548110610e5e57610e5e613fe3565b6000918252602090912001546001600160a01b03161415610e7e57610e90565b80610e8881613ff9565b915050610e37565b600b54811015610adc57805b600b54610eab9060019061405d565b811015610f3657600b610ebf826001614074565b81548110610ecf57610ecf613fe3565b600091825260209091200154600b80546001600160a01b039092169183908110610efb57610efb613fe3565b600091825260209091200180546001600160a01b0319166001600160a01b039290921691909117905580610f2e81613ff9565b915050610e9c565b50600b805480610f4857610f4861408c565b600082815260208120820160001990810180546001600160a01b03191690559091019091556040516001600160a01b0384169133917f7df5d17d768be6563796784637c80bc9204e2af0bc4ba8630f5aa2fed96ea4879190a35050565b60018181548110610d6a57600080fd5b6002546001600160a01b03163314610fdf5760405162461bcd60e51b81526004016107c690613f7e565b6001600160a01b0381166110055760405162461bcd60e51b81526004016107c69061410d565b61100e8161085b565b6107d857600b805460018101825560009182527f0175b7a638427703f0dbe7bb9bbf987a2551717b34e79f33b5b1008d1fa01db90180546001600160a01b0319166001600160a01b038416908117909155604051909133917fcef3ce01f85c030161b431114e41e463297b68f169c1013c526b1cbc5747e5449190a350565b6000805b600c5481101561085257826001600160a01b0316600c82815481106110b8576110b8613fe3565b6000918252602090912001546001600160a01b031614156110dc5750600192915050565b806110e681613ff9565b915050611091565b6060600b805480602002602001604051908101604052809291908181526020018280548015610914576020028201919060005260206000209081546001600160a01b031681526001909101906020018083116108f6575050505050905090565b6002546001600160a01b031633146111785760405162461bcd60e51b81526004016107c690613f7e565b600581905560405181815233907f5ee73342e684c0b848562c301fa2dc6b0146b266cfa12d4219fb04b316f7a4759060200160405180910390a250565b6107ee620f4240670de0b6b3a76400006140eb565b600b8181548110610d6a57600080fd5b60035460405163226e761560e01b81523360048201526000916001600160a01b03169063226e761590602401602060405180830381865afa158015611223573d6000803e3d6000fd5b505050506040513d601f19601f820116820180604052508101906112479190614167565b6112635760405162461bcd60e51b81526004016107c690614182565b61126c8661108d565b6112cb5760405162461bcd60e51b815260206004820152602a60248201527f464143544f525920524f555445523a20496e76616c696420466978656450726960448201526918d950dbdb9d1c9858dd60b21b60648201526084016107c6565b60405163012c327560e01b81526001600160a01b0387169063012c3275906112ff90339089908990899089906004016141cd565b6020604051808303816000875af115801561131e573d6000803e3d6000fd5b505050506040513d601f19601f82011682018060405250810190611342919061425c565b9695505050505050565b603281111561136d5760405162461bcd60e51b81526004016107c690614275565b60005b8181101561179157600083838381811061138c5761138c613fe3565b6113a29260206060909202019081019150613c01565b6001600160a01b0316634df947d06040518163ffffffff1660e01b8152600401602060405180830381865afa1580156113df573d6000803e3d6000fd5b505050506040513d601f19601f8201168201806040525081019061140391906142b7565b905061142f60405180604001604052806008815260200167537461727420257360c01b81525083613054565b61145681333087878781811061144757611447613fe3565b90506060020160200135613099565b6114846040518060400160405280600c81526020016b676f742066756e647320257360a01b81525083613054565b600084848481811061149857611498613fe3565b6114ae9260206060909202019081019150613c01565b6040516370a0823160e01b81523060048201526001600160a01b0391909116906370a0823190602401602060405180830381865afa1580156114f4573d6000803e3d6000fd5b505050506040513d601f19601f82011682018060405250810190611518919061425c565b905061157a85858581811061152f5761152f613fe3565b6115459260206060909202019081019150613c01565b86868681811061155757611557613fe3565b90506060020160200135846001600160a01b03166131e69092919063ffffffff16565b84848481811061158c5761158c613fe3565b6115a29260206060909202019081019150613c01565b6001600160a01b0316638329ab338686868181106115c2576115c2613fe3565b905060600201602001358787878181106115de576115de613fe3565b905060600201604001356040518363ffffffff1660e01b815260040161160e929190918252602082015260400190565b6020604051808303816000875af115801561162d573d6000803e3d6000fd5b505050506040513d601f19601f82011682018060405250810190611651919061425c565b50600085858581811061166657611666613fe3565b61167c9260206060909202019081019150613c01565b6040516370a0823160e01b81523060048201526001600160a01b0391909116906370a0823190602401602060405180830381865afa1580156116c2573d6000803e3d6000fd5b505050506040513d601f19601f820116820180604052508101906116e6919061425c565b905061170c604051806060016040528060298152602001614694602991398583856132d1565b6117523361171a838561331a565b88888881811061172c5761172c613fe3565b6117429260206060909202019081019150613c01565b6001600160a01b0316919061332d565b61177b60405180604001604052806007815260200166446f6e6520257360c81b81525085613054565b505050808061178990613ff9565b915050611370565b505050565b6107ee64e8d4a51000670de0b6b3a76400006140eb565b6107ee670de0b6b3a76400006064613fc4565b6117d36003670de0b6b3a76400006140eb565b6107ee906001614074565b6060600a805480602002602001604051908101604052809291908181526020018280548015610914576020028201919060005260206000209081546001600160a01b031681526001909101906020018083116108f6575050505050905090565b6002546001600160a01b031633146118685760405162461bcd60e51b81526004016107c690613f7e565b6001600160a01b0381166118d15760405162461bcd60e51b815260206004820152602a60248201527f466163746f7279526f757465723a20496e76616c6964204f6365616e20546f6b604482015269656e206164647265737360b01b60648201526084016107c6565b60005b600a5481101561192d57816001600160a01b0316600a82815481106118fb576118fb613fe3565b6000918252602090912001546001600160a01b0316141561191b5761192d565b8061192581613ff9565b9150506118d4565b600a54811015610adc57805b600a546119489060019061405d565b8110156119d357600a61195c826001614074565b8154811061196c5761196c613fe3565b600091825260209091200154600a80546001600160a01b03909216918390811061199857611998613fe3565b600091825260209091200180546001600160a01b0319166001600160a01b0392909216919091179055806119cb81613ff9565b915050611939565b50600a8054806119e5576119e561408c565b600082815260208120820160001990810180546001600160a01b03191690559091019091556040516001600160a01b0384169133917fbbe55b1ff108e23e5ff1a6f5d36946eec15ec0ca0ded2bfed4cdcf697ca904609190a35050565b6002546001600160a01b03163314611a6c5760405162461bcd60e51b81526004016107c690613f7e565b6001600160a01b038116611a925760405162461bcd60e51b81526004016107c6906140a2565b60005b600c54811015611aee57816001600160a01b0316600c8281548110611abc57611abc613fe3565b6000918252602090912001546001600160a01b03161415611adc57611aee565b80611ae681613ff9565b915050611a95565b600c54811015610adc57805b600c54611b099060019061405d565b811015611b9457600c611b1d826001614074565b81548110611b2d57611b2d613fe3565b600091825260209091200154600c80546001600160a01b039092169183908110611b5957611b59613fe3565b600091825260209091200180546001600160a01b0319166001600160a01b039290921691909117905580611b8c81613ff9565b915050611afa565b50600c805480611ba657611ba661408c565b600082815260208120820160001990810180546001600160a01b03191690559091019091556040516001600160a01b0384169133917ff1ec0697329a2e8de8cf055335547acc40fbace8712fc77aeea1ea2afbcf7e3b9190a35050565b6002546001600160a01b03163314611c2d5760405162461bcd60e51b81526004016107c690613f7e565b6107d88161335d565b600c8181548110610d6a57600080fd5b6000611c51826107f1565b15611c5e57505060065490565b505060075490565b919050565b6107ee600a670de0b6b3a76400006140eb565b6001611c93670de0b6b3a76400006002613fc4565b6107ee919061405d565b6002546001600160a01b03163314611cc75760405162461bcd60e51b81526004016107c690613f7e565b600684905560078390556008829055600981905560408051858152602081018590529081018390526060810182905233907fe6171cf0506862c0a0185f8c21dca979859d4eb63186eff63f1b3dd14926be7b9060800160405180910390a250505050565b6000805b60015481101561085257826001600160a01b031660018281548110611d5657611d56613fe3565b6000918252602090912001546001600160a01b03161415611d7a5750600192915050565b80611d8481613ff9565b915050611d2f565b60035460405163226e761560e01b81523360048201526001600160a01b039091169063226e761590602401602060405180830381865afa158015611dd4573d6000803e3d6000fd5b505050506040513d601f19601f82011682018060405250810190611df89190614167565b611e145760405162461bcd60e51b81526004016107c690614182565b611e1d86612f5b565b611e7b5760405162461bcd60e51b815260206004820152602960248201527f464143544f525920524f555445523a20496e76616c69642044697370656e73656044820152681c90dbdb9d1c9858dd60ba1b60648201526084016107c6565b6040516324ce291760e01b81526001600160a01b0386811660048301526024820186905260448201859052838116606483015282811660848301528716906324ce29179060a401600060405180830381600087803b158015611edc57600080fd5b505af1158015611ef0573d6000803e3d6000fd5b50505050505050505050565b6002546001600160a01b03163314611f265760405162461bcd60e51b81526004016107c690613f7e565b6001600160a01b038116611f4c5760405162461bcd60e51b81526004016107c690614014565b611f5581612f5b565b6107d857600d805460018101825560009182527fd7b6990105719101dabeb77144f2a3385c8033acd3af97e9423a695e81ad1eb50180546001600160a01b0319166001600160a01b038416908117909155604051909133917f78be9d87a7b2c8707b044dbf5b04c3f747b692c55ec34dcd1d7357736478789c9190a350565b6002546001600160a01b03163314611ffe5760405162461bcd60e51b81526004016107c690613f7e565b6107d88161344e565b6002546001600160a01b031633146120315760405162461bcd60e51b81526004016107c690613f7e565b6001600160a01b0381166120875760405162461bcd60e51b815260206004820152601860248201527f496e76616c6964206e657720726f75746572206f776e6572000000000000000060448201526064016107c6565b600280546001600160a01b0319166001600160a01b03831690811790915560405133907fc736654a613824c69968e0ec25ac1a428ccd49e15c28e97b5dfd2c6059757e2a90600090a350565b6107ee6002670de0b6b3a76400006140eb565b60328111156121075760405162461bcd60e51b81526004016107c690614275565b60005b81811015611791576000604051806060016040528085858581811061213157612131613fe3565b90506101400201606001602081019061214a9190613c01565b6001600160a01b0316815260200185858581811061216a5761216a613fe3565b9050610140020160a00160208101906121839190613c01565b6001600160a01b031681526020018585858181106121a3576121a3613fe3565b905061014002016101200160208101906121bd9190613c01565b6001600160a01b03166001600160a01b03168152509050600060405180608001604052808686868181106121f3576121f3613fe3565b9050610140020160800135815260200186868681811061221557612215613fe3565b9050610140020160c00135815260200186868681811061223757612237613fe3565b9050610140020160e00135815260200186868681811061225957612259613fe3565b90506101400201610100013581525090506000600381111561227d5761227d6142d4565b85858581811061228f5761228f613fe3565b9050610140020160400160208101906122a891906142ea565b60038111156122b9576122b96142d4565b141561246c576123118585858181106122d4576122d4613fe3565b9050610140020160600160208101906122ed9190613c01565b333088888881811061230157612301613fe3565b9050610140020160800135613099565b61239785858581811061232657612326613fe3565b90506101400201602001602081019061233f9190613c01565b86868681811061235157612351613fe3565b905061014002016080013587878781811061236e5761236e613fe3565b9050610140020160600160208101906123879190613c01565b6001600160a01b031691906131e6565b60008585858181106123ab576123ab613fe3565b9050610140020160200160208101906123c49190613c01565b6001600160a01b031663c421a3fc84846040518363ffffffff1660e01b81526004016123f192919061430b565b60408051808303816000875af115801561240f573d6000803e3d6000fd5b505050506040513d601f19601f820116820180604052508101906124339190614370565b509050612466338288888881811061244d5761244d613fe3565b9050610140020160a00160208101906117429190613c01565b50612ba4565b600185858581811061248057612480613fe3565b90506101400201604001602081019061249991906142ea565b60038111156124aa576124aa6142d4565b141561274b5760008585858181106124c4576124c4613fe3565b9050610140020160200160208101906124dd9190613c01565b6001600160a01b031663caa011488787878181106124fd576124fd613fe3565b9050610140020160600160208101906125169190613c01565b88888881811061252857612528613fe3565b9050610140020160a00160208101906125419190613c01565b89898981811061255357612553613fe3565b9050610140020160c001358a8a8a81811061257057612570613fe3565b6040516001600160e01b031960e089901b1681526001600160a01b039687166004820152959094166024860152506044840191909152610100610140909202010135606482015260840160a060405180830381865afa1580156125d7573d6000803e3d6000fd5b505050506040513d601f19601f820116820180604052508101906125fb9190614394565b5092935061263b92508891508790508681811061261a5761261a613fe3565b9050610140020160600160208101906126339190613c01565b333084613099565b61267c86868681811061265057612650613fe3565b9050610140020160200160208101906126699190613c01565b8288888881811061236e5761236e613fe3565b85858581811061268e5761268e613fe3565b9050610140020160200160208101906126a79190613c01565b6001600160a01b031663c98a59cf84846040518363ffffffff1660e01b81526004016126d492919061430b565b60408051808303816000875af11580156126f2573d6000803e3d6000fd5b505050506040513d601f19601f820116820180604052508101906127169190614370565b50506124663387878781811061272e5761272e613fe3565b9050610140020160c0013588888881811061244d5761244d613fe3565b600285858581811061275f5761275f613fe3565b90506101400201604001602081019061277891906142ea565b6003811115612789576127896142d4565b1415612abb5760008585858181106127a3576127a3613fe3565b9050610140020160200160208101906127bc9190613c01565b6001600160a01b0316634c87087d8787878181106127dc576127dc613fe3565b90506101400201600001356040518263ffffffff1660e01b815260040161280591815260200190565b61018060405180830381865afa158015612823573d6000803e3d6000fd5b505050506040513d601f19601f8201168201806040525081019061284791906143d4565b50505050505050505050915050600086868681811061286857612868613fe3565b9050610140020160200160208101906128819190613c01565b6001600160a01b031663c99733a78888888181106128a1576128a1613fe3565b90506101400201600001358989898181106128be576128be613fe3565b9050610140020160c001356040518363ffffffff1660e01b81526004016128ef929190918252602082015260400190565b608060405180830381865afa15801561290c573d6000803e3d6000fd5b505050506040513d601f19601f820116820180604052508101906129309190614488565b505050905061294a87878781811061261a5761261a613fe3565b61298b87878781811061295f5761295f613fe3565b9050610140020160200160208101906129789190613c01565b8289898981811061236e5761236e613fe3565b86868681811061299d5761299d613fe3565b9050610140020160200160208101906129b69190613c01565b6001600160a01b031663825b5cd68888888181106129d6576129d6613fe3565b90506101400201600001358989898181106129f3576129f3613fe3565b9050610140020160c001358a8a8a818110612a1057612a10613fe3565b6040516001600160e01b031960e088901b168152600481019590955260248501939093525060806101409092020101356044820152606401600060405180830381600087803b158015612a6257600080fd5b505af1158015612a76573d6000803e3d6000fd5b50505050612ab433888888818110612a9057612a90613fe3565b9050610140020160c00135846001600160a01b031661332d9092919063ffffffff16565b5050612ba4565b848484818110612acd57612acd613fe3565b905061014002016020016020810190612ae69190613c01565b6001600160a01b0316631d746d83868686818110612b0657612b06613fe3565b9050610140020160a0016020810190612b1f9190613c01565b878787818110612b3157612b31613fe3565b60405160e086901b6001600160e01b03191681526001600160a01b03949094166004850152610140029190910160c00135602483015250336044820152606401600060405180830381600087803b158015612b8b57600080fd5b505af1158015612b9f573d6000803e3d6000fd5b505050505b50508080612bb190613ff9565b91505061210a565b60035460405163226e761560e01b81523360048201526000916001600160a01b03169063226e761590602401602060405180830381865afa158015612c02573d6000803e3d6000fd5b505050506040513d601f19601f82011682018060405250810190612c269190614167565b612c425760405162461bcd60e51b81526004016107c690614182565b612c6d83836000818110612c5857612c58613fe3565b90506020020160208101906104619190613c01565b612cc45760405162461bcd60e51b815260206004820152602260248201527f464143544f525920524f555445523a20696e76616c6964207373436f6e74726160448201526118dd60f21b60648201526084016107c6565b600087876001818110612cd957612cd9613fe3565b9050602002013511612d1e5760405162461bcd60e51b815260206004820152600e60248201526d57726f6e6720646563696d616c7360901b60448201526064016107c6565b612da0612d3160408a0160208b01613c01565b84846002818110612d4457612d44613fe3565b9050602002016020810190612d599190613c01565b85856000818110612d6c57612d6c613fe3565b9050602002016020810190612d819190613c01565b8a8a6004818110612d9457612d94613fe3565b90506020020135613099565b604080518082018252600091612e6391908b90600290839083908082843760009201919091525050604080516020808d0282810182019093528c82529092508c918c9182919085019084908082843760009201919091525050604080516020808d0282810182019093528c82529093508c92508b91829185019084908082843760009201919091525050604080516020808c0282810182019093528b82529093508b92508a9182918501908490808284376000920191909152506135bd92505050565b90506001600160a01b038116612eb35760405162461bcd60e51b8152602060048201526015602482015274119052531151081513c81111541313d6481413d3d3605a1b60448201526064016107c6565b612ec661043e60408b0160208c01613c01565b15612f0f57604051600181526001600160a01b038216907f90279d7790471e260411db76079630dfaa838fc987d29ae7aa7dc1bcd773ef2e9060200160405180910390a2612f4f565b604051600081526001600160a01b038216907f90279d7790471e260411db76079630dfaa838fc987d29ae7aa7dc1bcd773ef2e9060200160405180910390a25b98975050505050505050565b6000805b600d5481101561085257826001600160a01b0316600d8281548110612f8657612f86613fe3565b6000918252602090912001546001600160a01b03161415612faa5750600192915050565b80612fb481613ff9565b915050612f5f565b600a8181548110610d6a57600080fd5b612fd5816107f1565b6107d857600a805460018101825560009182527fc65a7bb8d6351c1cf70c95a316cc6a92839c986682d98bc35f958f4883f9d2a80180546001600160a01b0319166001600160a01b038416908117909155604051909133917fdffbd9ded1c09446f09377de547142dcce7dc541c8b0b028142b1eba7026b9e79190a350565b610adc828260405160240161306a929190614516565b60408051601f198184030181529190526020810180516001600160e01b03166309710a9d60e41b1790526138ad565b6040516370a0823160e01b81526001600160a01b038381166004830152600091908616906370a0823190602401602060405180830381865afa1580156130e3573d6000803e3d6000fd5b505050506040513d601f19601f82011682018060405250810190613107919061425c565b905061311e6001600160a01b0386168585856138ce565b6131288183613906565b6040516370a0823160e01b81526001600160a01b0385811660048301528716906370a0823190602401602060405180830381865afa15801561316e573d6000803e3d6000fd5b505050506040513d601f19601f82011682018060405250810190613192919061425c565b146131df5760405162461bcd60e51b815260206004820152601d60248201527f5472616e7366657220616d6f756e7420776173206e6f7420657861637400000060448201526064016107c6565b5050505050565b604051636eb1769f60e11b81523060048201526001600160a01b038381166024830152600091839186169063dd62ed3e90604401602060405180830381865afa158015613237573d6000803e3d6000fd5b505050506040513d601f19601f8201168201806040525081019061325b919061425c565b6132659190614074565b6040516001600160a01b0385166024820152604481018290529091506132cb90859063095ea7b360e01b906064015b60408051601f198184030181529190526020810180516001600160e01b03166001600160e01b031990931692909217909152613912565b50505050565b6132cb848484846040516024016132eb9493929190614538565b60408051601f198184030181529190526020810180516001600160e01b03166304772b3360e11b1790526138ad565b6000613326828461405d565b9392505050565b6040516001600160a01b03831660248201526044810182905261179190849063a9059cbb60e01b90606401613294565b6001600160a01b0381166133c75760405162461bcd60e51b815260206004820152602b60248201527f466163746f7279526f757465723a20496e76616c696420706f6f6c54656d706c60448201526a617465206164647265737360a81b60648201526084016107c6565b6133d081611d2b565b6107d85760018054808201825560009182527fb10e2d527612073b26eecdfd717e6a320cf44b4afac2b0732d9fcbe2b7fa0cf60180546001600160a01b0319166001600160a01b038416908117909155604051909133917fc3674c32cbec94fe266aab7ef71f65b9bf77e1ed501d4f2bece8752f5352e9ac9190a350565b60005b6001548110156134aa57816001600160a01b03166001828154811061347857613478613fe3565b6000918252602090912001546001600160a01b03161415613498576134aa565b806134a281613ff9565b915050613451565b600154811015610adc57805b600180546134c4919061405d565b81101561354e5760016134d78282614074565b815481106134e7576134e7613fe3565b600091825260209091200154600180546001600160a01b03909216918390811061351357613513613fe3565b600091825260209091200180546001600160a01b0319166001600160a01b03929092169190911790558061354681613ff9565b9150506134b6565b5060018054806135605761356061408c565b600082815260208120820160001990810180546001600160a01b03191690559091019091556040516001600160a01b0384169133917fc73fd5d40669565e257cbcd153784617ef26acfcc9fead31e68c0dce3ce82fb29190a35050565b60006135e2826005815181106135d5576135d5613fe3565b6020026020010151611d2b565b61362e5760405162461bcd60e51b815260206004820152601d60248201527f42466163746f72793a2057726f6e6720506f6f6c2054656d706c61746500000060448201526064016107c6565b600060405180604001604052808460048151811061364e5761364e613fe3565b6020908102919091018101516001600160a01b039081168352600054169101528351909150613697908490600590811061368a5761368a613fe3565b60200260200101516139e4565b91506001600160a01b0382166136fb5760405162461bcd60e51b8152602060048201526024808201527f42466163746f72793a20696e76616c69642062706f6f6c207a65726f206164646044820152637265737360e01b60648201526084016107c6565b6000829050806001600160a01b031663c070a6d88560008151811061372257613722613fe3565b602002602001015130886000808d896040518863ffffffff1660e01b815260040161375397969594939291906145ce565b6020604051808303816000875af1158015613772573d6000803e3d6000fd5b505050506040513d601f19601f820116820180604052508101906137969190614167565b6137d95760405162461bcd60e51b815260206004820152601460248201527311549497d253925512505312569157d09413d3d360621b60448201526064016107c6565b836000815181106137ec576137ec613fe3565b60200260200101516001600160a01b03166383b87e5a8860006002811061381557613815613fe3565b60200201518960016020020151868860038151811061383657613836613fe3565b60200260200101518b6040518663ffffffff1660e01b815260040161385f959493929190614628565b6020604051808303816000875af115801561387e573d6000803e3d6000fd5b505050506040513d601f19601f820116820180604052508101906138a29190614167565b505050949350505050565b80516a636f6e736f6c652e6c6f67602083016000808483855afa5050505050565b6040516001600160a01b03808516602483015283166044820152606481018290526132cb9085906323b872dd60e01b90608401613294565b60006133268284614074565b6000613967826040518060400160405280602081526020017f5361666545524332303a206c6f772d6c6576656c2063616c6c206661696c6564815250856001600160a01b0316613a749092919063ffffffff16565b80519091501561179157808060200190518101906139859190614167565b6117915760405162461bcd60e51b815260206004820152602a60248201527f5361666545524332303a204552433230206f7065726174696f6e20646964206e6044820152691bdd081cdd58d8d9595960b21b60648201526084016107c6565b6000808260601b9050604051733d602d80600a3d3981f3363d3d373d3d3d363d7360601b81528160148201526e5af43d82803e903d91602b57fd5bf360881b60288201526037816000f06040516001600160a01b03821681529093507f117c72e6c25f0a072e36e148df71468ce2f3dbe7defec5b2c257a6e3eb65278c915060200160405180910390a150919050565b6060613a838484600085613a8b565b949350505050565b606082471015613aec5760405162461bcd60e51b815260206004820152602660248201527f416464726573733a20696e73756666696369656e742062616c616e636520666f6044820152651c8818d85b1b60d21b60648201526084016107c6565b843b613b3a5760405162461bcd60e51b815260206004820152601d60248201527f416464726573733a2063616c6c20746f206e6f6e2d636f6e747261637400000060448201526064016107c6565b600080866001600160a01b03168587604051613b569190614664565b60006040518083038185875af1925050503d8060008114613b93576040519150601f19603f3d011682016040523d82523d6000602084013e613b98565b606091505b5091509150613ba8828286613bb3565b979650505050505050565b60608315613bc2575081613326565b825115613bd25782518084602001fd5b8160405162461bcd60e51b81526004016107c69190614680565b6001600160a01b03811681146107d857600080fd5b600060208284031215613c1357600080fd5b813561332681613bec565b6020808252825182820181905260009190848201906040850190845b81811015613c5f5783516001600160a01b031683529284019291840191600101613c3a565b50909695505050505050565b600060208284031215613c7d57600080fd5b5035919050565b60008083601f840112613c9657600080fd5b50813567ffffffffffffffff811115613cae57600080fd5b6020830191508360208260051b8501011115613cc957600080fd5b9250929050565b600080600080600060608688031215613ce857600080fd5b8535613cf381613bec565b9450602086013567ffffffffffffffff80821115613d1057600080fd5b613d1c89838a01613c84565b90965094506040880135915080821115613d3557600080fd5b50613d4288828901613c84565b969995985093965092949392505050565b60008060208385031215613d6657600080fd5b823567ffffffffffffffff80821115613d7e57600080fd5b818501915085601f830112613d9257600080fd5b813581811115613da157600080fd5b866020606083028501011115613db657600080fd5b60209290920196919550909350505050565b60008060008060808587031215613dde57600080fd5b5050823594602084013594506040840135936060013592509050565b60008060008060008060c08789031215613e1357600080fd5b8635613e1e81613bec565b95506020870135613e2e81613bec565b945060408701359350606087013592506080870135613e4c81613bec565b915060a0870135613e5c81613bec565b809150509295509295509295565b60008060208385031215613e7d57600080fd5b823567ffffffffffffffff80821115613e9557600080fd5b818501915085601f830112613ea957600080fd5b813581811115613eb857600080fd5b86602061014083028501011115613db657600080fd5b600080600080600080600060a0888a031215613ee957600080fd5b6040880189811115613efa57600080fd5b8897503567ffffffffffffffff80821115613f1457600080fd5b613f208b838c01613c84565b909850965060608a0135915080821115613f3957600080fd5b613f458b838c01613c84565b909650945060808a0135915080821115613f5e57600080fd5b50613f6b8a828b01613c84565b989b979a50959850939692959293505050565b60208082526016908201527527b1b2b0b72937baba32b91d102727aa1027aba722a960511b604082015260600190565b634e487b7160e01b600052601160045260246000fd5b6000816000190483118215151615613fde57613fde613fae565b500290565b634e487b7160e01b600052603260045260246000fd5b600060001982141561400d5761400d613fae565b5060010190565b60208082526029908201527f466163746f7279526f757465723a20496e76616c6964205f64697370656e736560408201526872206164647265737360b81b606082015260800190565b60008282101561406f5761406f613fae565b500390565b6000821982111561408757614087613fae565b500190565b634e487b7160e01b600052603160045260246000fd5b60208082526029908201527f466163746f7279526f757465723a20496e76616c6964205f666978656452617460408201526865206164647265737360b81b606082015260800190565b60008261410857634e487b7160e01b600052601260045260246000fd5b500490565b6020808252602a908201527f466163746f7279526f757465723a20496e76616c6964205f7373436f6e7472616040820152696374206164647265737360b01b606082015260800190565b80518015158114611c6657600080fd5b60006020828403121561417957600080fd5b61332682614157565b6020808252602b908201527f464143544f525920524f555445523a204e4f54204f524947494e414c2045524360408201526a32302054454d504c41544560a81b606082015260800190565b6001600160a01b03868116825260606020808401829052908301869052600091879160808501845b8981101561421c57843561420881613bec565b8416825293820193908201906001016141f5565b5085810360408701528681526001600160fb1b0387111561423c57600080fd5b8660051b9350838883830137600093010191825250979650505050505050565b60006020828403121561426e57600080fd5b5051919050565b60208082526022908201527f466163746f7279526f757465723a20546f6f204d616e79204f7065726174696f6040820152616e7360f01b606082015260800190565b6000602082840312156142c957600080fd5b815161332681613bec565b634e487b7160e01b600052602160045260246000fd5b6000602082840312156142fc57600080fd5b81356004811061332657600080fd5b60e08101818460005b600381101561433c5781516001600160a01b0316835260209283019290910190600101614314565b505050606082018360005b6004811015614366578151835260209283019290910190600101614347565b5050509392505050565b6000806040838503121561438357600080fd5b505080516020909101519092909150565b600080600080600060a086880312156143ac57600080fd5b5050835160208501516040860151606087015160809097015192989197509594509092509050565b6000806000806000806000806000806000806101808d8f0312156143f757600080fd5b8c5161440281613bec565b60208e0151909c5061441381613bec565b60408e015160608f0151919c509a5061442b81613bec565b60808e015160a08f0151919a509850965061444860c08e01614157565b955060e08d015194506101008d015193506101208d015192506101408d015191506144766101608e01614157565b90509295989b509295989b509295989b565b6000806000806080858703121561449e57600080fd5b505082516020840151604085015160609095015191969095509092509050565b60005b838110156144d95781810151838201526020016144c1565b838111156132cb5750506000910152565b600081518084526145028160208601602086016144be565b601f01601f19169290920160200192915050565b60408152600061452960408301856144ea565b90508260208301529392505050565b60808152600061454b60808301876144ea565b6020830195909552506040810192909252606090910152919050565b600081518084526020808501945080840160005b838110156145975781518752958201959082019060010161457b565b509495945050505050565b8060005b60028110156132cb5781516001600160a01b03168452602093840193909101906001016145a6565b6001600160a01b03888116825287166020820152610120604082018190526000906145fb83820189614567565b9150508515156060830152841515608083015261461b60a08301856145a2565b612f4f60e08301846145a2565b6001600160a01b038681168252858116602083015284811660408301528316606082015260a060808201819052600090613ba890830184614567565b600082516146768184602087016144be565b9190910192915050565b60208152600061332660208301846144ea56fe693a2025732c2062616c616e636541667465723a2025732c2062616c616e63654265666f7265202573a26469706673582212203b99b3613d40275d64b9e103c9dfbfa86a8d1ad448656a52c8c9997cb1afd3f564736f6c634300080a0033",
  "linkReferences": {},
  "deployedLinkReferences": {}
}